:100000000C942A000C943F000C943F000C943F0089
:100010000C943F000C943F000C943F000C943F0064
:100020000C943F000C943F000C943F000C943F0054
:100030000C943F000C943F000C943F000C943F0044
:100040000C943F000C943F000C943F000C943F0034
:100050000C943F0011241FBECFE5D4E0DEBFCDBF1E
:1000600010E0A0E6B0E0EEEAF3E002C005900D92E9
:10007000A23CB107D9F70E94EC000C94D5010C9476
:100080000000C0988BBBC29A8AEF90E0FC013197C8
:10009000F1F7C2980197F1F7089588E390E00E9484
:1000A000410086E090E00E9441008EE090E00E94D6
:1000B000410081E090E00E94410080E890E00E94D1
:1000C00041000895C09A8BBBC29A8AEF90E0FC0170
:1000D0003197F1F7C2980197F1F70895CF93DF9325
:1000E000EC0104C0219690E00E9462008881882380
:1000F000C9F7DF91CF91089510BC89B98AB18861A1
:100100008AB980B5866880BD08955F9BFECF8CB1AB
:1001100008958FE085BB8FEF9FEF29E130E0F90173
:100120003197F1F70197D9F78FEF9FEF29E130E091
:10013000F9013197F1F70197D9F78FEF85BB8FEF71
:100140009FEF29E130E0F9013197F1F70197D9F7F5
:100150008FEF9FEF29E130E0F9013197F1F7019737
:10016000D9F78FEF9FEF29E130E0F9013197F1F7EF
:100170000197D9F780EF85BB8FEF9FEF29E130E042
:10018000F9013197F1F70197D9F78FEF9FEF29E147
:1001900030E0F9013197F1F70197D9F78FEF85BB7F
:1001A0008FEF9FEF29E130E0F9013197F1F70197E7
:1001B000D9F78FEF9FEF29E130E0F9013197F1F79F
:1001C0000197D9F78FEF9FEF29E130E0F9013197DF
:1001D000F1F70197D9F708952F923F924F925F92CE
:1001E0006F927F928F929F92AF92BF92CF92DF9247
:1001F000EF92FF920F931F93DF93CF93CDB7DEB7AC
:100200002F970FB6F894DEBF0FBECDBF8FEF8ABB1E
:1002100087BB84BB81BB0E944D0010BC83E389B9BE
:100220008AB188618AB980B5866880BD84EC99E01E
:100230000197F1F750E8752E4AEFC42ED12C2E010C
:100240000894411C511C3DE0232E312C2C0E3D1EE8
:1002500029E1822E912C90EC692E8AEFA82EB12CE8
:10026000C0987BBAC29AC6010197F1F7C298C6013D
:100270000197F1F780E690E00E946E007201820122
:100280005F9BFECF8CB1F80181938F01E215F305DE
:10029000B9F70E944D008FEF9FEFF4013197F1F70E
:1002A0000197D9F7C0986BBAC29AC6010197F1F7C6
:1002B000C298C6010197F1F7F70181917F01C09AB9
:1002C0008BBBC29AC6010197F1F7C298C60101978C
:1002D000F1F7E017F10781F78B85863489F48C8577
:1002E000853409F035C0C0987BBAC29AC501019720
:1002F000F1F7C298C5010197F1F781E790E023C0BB
:10030000853481F48C85843319F5C0987BBAC29A00
:10031000C5010197F1F7C298C5010197F1F780E88F
:1003200090E011C08433A1F48C85853389F4C098A2
:100330007BBAC29AC5010197F1F7C298C50101972E
:10034000F1F78FE890E00E946E000E9489001CC0C7
:10035000C0987BBAC29AC6010197F1F7C298C6014C
:100360000197F1F78FE990E00E946E00C0986BBA98
:10037000C29AC6010197F1F7C298C6010197F1F739
:1003800080EB90E00E946E008FEF9FEFF4013197B9
:10039000F1F70197D9F70E944D008FEF9FEFF4011D
:0E03A0003197F1F70197D9F75BCFF894FFCFB3
:1003AE0020535749504520555220434152442E2048
:1003BE000020434152442031204D414E49534800C4
:1003CE00204341524420322053484159414E00208F
:1003DE00434152442033204156494E415348002058
:1003EE00204143434553532044454E494544200044
:1003FE002044454550414B202053554D414E5420ED
:02040E000000EC
:00000001FF
